011760103P00010145        999998098059120410541200224200000000012009010120090731factuur-92  20090731NL123456789B12EUR                                                                                                                                                                                                 
020000000000012889022943317DV3vnr_01      DV3pat_01  1950010121DV3_Testbestand          het       2DV3_Tester               de        DV    35469BC         00022        DV3DEBT1   2                                                                                                                                 
980000000000010001COMMENTAAR VZ RECORD1                                                                                                                                                                                                                                                                               
03000000000002DV3DEBT1   1960010111DV3_Tester               de        0                                   CHK   100Budapestlaan            00017      3584CD         Utrecht                                  000Tester@Famed.nl                                                       000000085062163112             
040000000000032889022943317DV3vnr_01                     12009010101N000010195001100      0000000 12041054000012041054010000000100000100010000D00000000060000010000DRef_01                                                                                                                                            
040000000000042889022943317DV3vnr_01                     12009010101N000010195002100      0000000 12041054000012041054010000000100000100010000D00000000060000010000DRef_02                                                                                                                                            
980000000000040001COMMENTAAR PRES RECORD2A                                                                                                                                                                                                                                                                            
980000000000040002COMMENTAAR PRES RECORD2B                                                                                                                                                                                                                                                                            
020000000000051912179923317DV3vnr_02      DV3pat_02  1950010121Defacto                  het       2Bouwer                   de        TST   37321DC         00280a       DV3DEBT2   2                                                                                                                                 
980000000000050001COMMENTAAR VZ RECORD2                                                                                                                                                                                                                                                                               
03000000000006DV3DEBT2   1960010111Bouwer                   de        0                                   CHK   100Langestraat             00010a     3811AG         Amersfoort                               000Tester@Famed.nl                                                       000000043787801512             
040000000000071912179923317DV3vnr_02                     12009020101N000010195001100      0000000 12041054000012041054010000000100000100010000D00000000060000010000DRef_03                                                                                                                                            
040000000000081912179923317DV3vnr_02                     12009020101N000010195002100      0000000 12041054000012041054010000000100000100010000D00000000060000010000DRef_04                                                                                                                                            
980000000000080001COMMENTAAR PRES RECORD4                                                                                                                                                                                                                                                                             
99000002000002000004000005000001300000040000D                                                                                                                                                                                                                                                                         